{
  "contractName": "Voting",
  "abi": [
    {
      "inputs": [
        {
          "internalType": "string[]",
          "name": "candidateNames",
          "type": "string[]"
        }
      ],
      "stateMutability": "nonpayable",
      "type": "constructor"
    },
    {
      "inputs": [
        {
          "internalType": "uint256",
          "name": "",
          "type": "uint256"
        }
      ],
      "name": "candidates",
      "outputs": [
        {
          "internalType": "string",
          "name": "name",
          "type": "string"
        },
        {
          "internalType": "uint256",
          "name": "voteCount",
          "type": "uint256"
        }
      ],
      "stateMutability": "view",
      "type": "function"
    },
    {
      "inputs": [
        {
          "internalType": "address",
          "name": "",
          "type": "address"
        }
      ],
      "name": "voters",
      "outputs": [
        {
          "internalType": "bool",
          "name": "",
          "type": "bool"
        }
      ],
      "stateMutability": "view",
      "type": "function"
    },
    {
      "inputs": [
        {
          "internalType": "uint256",
          "name": "candidateIndex",
          "type": "uint256"
        }
      ],
      "name": "vote",
      "outputs": [],
      "stateMutability": "nonpayable",
      "type": "function"
    },
    {
      "inputs": [],
      "name": "getCandidates",
      "outputs": [
        {
          "components": [
            {
              "internalType": "string",
              "name": "name",
              "type": "string"
            },
            {
              "internalType": "uint256",
              "name": "voteCount",
              "type": "uint256"
            }
          ],
          "internalType": "struct Voting.Candidate[]",
          "name": "",
          "type": "tuple[]"
        }
      ],
      "stateMutability": "view",
      "type": "function"
    }
  ],
  "bytecode": "0x608060405234801562000010575f80fd5b50604051620010c1380380620010c1833981810160405281019062000036919062000358565b5f5b8151811015620000d3575f6040518060400160405280848481518110620000645762000063620003a7565b5b602002602001015181526020015f815250908060018154018082558091505060019003905f5260205f2090600202015f909190919091505f820151815f019081620000b091906200060b565b506020820151816001015550508080620000ca906200071c565b91505062000038565b505062000768565b5f604051905090565b5f80fd5b5f80fd5b5f80fd5b5f601f19601f8301169050919050565b7f4e487b71000000000000000000000000000000000000000000000000000000005f52604160045260245ffd5b6200013882620000f0565b810181811067ffffffffffffffff821117156200015a576200015962000100565b5b80604052505050565b5f6200016e620000db565b90506200017c82826200012d565b919050565b5f67ffffffffffffffff8211156200019e576200019d62000100565b5b602082029050602081019050919050565b5f80fd5b5f80fd5b5f67ffffffffffffffff821115620001d457620001d362000100565b5b620001df82620000f0565b9050602081019050919050565b5f5b838110156200020b578082015181840152602081019050620001ee565b5f8484015250505050565b5f6200022c6200022684620001b7565b62000163565b9050828152602081018484840111156200024b576200024a620001b3565b5b62000258848285620001ec565b509392505050565b5f82601f830112620002775762000276620000ec565b5b81516200028984826020860162000216565b91505092915050565b5f620002a8620002a28462000181565b62000163565b90508083825260208201905060208402830185811115620002ce57620002cd620001af565b5b835b818110156200031c57805167ffffffffffffffff811115620002f757620002f6620000ec565b5b80860162000306898262000260565b85526020850194505050602081019050620002d0565b5050509392505050565b5f82601f8301126200033d576200033c620000ec565b5b81516200034f84826020860162000292565b91505092915050565b5f6020828403121562000370576200036f620000e4565b5b5f82015167ffffffffffffffff81111562000390576200038f620000e8565b5b6200039e8482850162000326565b91505092915050565b7f4e487b71000000000000000000000000000000000000000000000000000000005f52603260045260245ffd5b5f81519050919050565b7f4e487b71000000000000000000000000000000000000000000000000000000005f52602260045260245ffd5b5f60028204905060018216806200042357607f821691505b602082108103620004395762000438620003de565b5b50919050565b5f819050815f5260205f209050919050565b5f6020601f8301049050919050565b5f82821b905092915050565b5f600883026200049d7fffffffffffffffffffffffffffffffffffffffffffffffffffffffffffffffff8262000460565b620004a9868362000460565b95508019841693508086168417925050509392505050565b5f819050919050565b5f819050919050565b5f620004f3620004ed620004e784620004c1565b620004ca565b620004c1565b9050919050565b5f819050919050565b6200050e83620004d3565b620005266200051d82620004fa565b8484546200046c565b825550505050565b5f90565b6200053c6200052e565b6200054981848462000503565b505050565b5b818110156200057057620005645f8262000532565b6001810190506200054f565b5050565b601f821115620005bf5762000589816200043f565b620005948462000451565b81016020851015620005a4578190505b620005bc620005b38562000451565b8301826200054e565b50505b505050565b5f82821c905092915050565b5f620005e15f1984600802620005c4565b1980831691505092915050565b5f620005fb8383620005d0565b9150826002028217905092915050565b6200061682620003d4565b67ffffffffffffffff81111562000632576200063162000100565b5b6200063e82546200040b565b6200064b82828562000574565b5f60209050601f83116001811462000681575f84156200066c578287015190505b620006788582620005ee565b865550620006e7565b601f19841662000691866200043f565b5f5b82811015620006ba5784890151825560018201915060208501945060208101905062000693565b86831015620006da5784890151620006d6601f891682620005d0565b8355505b6001600288020188555050505b505050505050565b7f4e487b71000000000000000000000000000000000000000000000000000000005f52601160045260245ffd5b5f6200072882620004c1565b91507fffffffffffffffffffffffffffffffffffffffffffffffffffffffffffffffff82036200075d576200075c620006ef565b5b600182019050919050565b61094b80620007765f395ff3fe608060405234801561000f575f80fd5b506004361061004a575f3560e01c80630121b93f1461004e57806306a49fce1461006a5780633477ee2e14610088578063a3ec138d146100b9575b5f80fd5b61006860048036038101906100639190610445565b6100e9565b005b610072610249565b60405161007f91906105fe565b60405180910390f35b6100a2600480360381019061009d9190610445565b61033d565b6040516100b0929190610675565b60405180910390f35b6100d360048036038101906100ce91906106fd565b6103f1565b6040516100e09190610742565b60405180910390f35b60015f3373ffffffffffffffffffffffffffffffffffffffff1673ffffffffffffffffffffffffffffffffffffffff1681526020019081526020015f205f9054906101000a900460ff1615610173576040517f08c379a000000000000000000000000000000000000000000000000000000000815260040161016a906107a5565b60405180910390fd5b5f8054905081106101b9576040517f08c379a00000000000000000000000000000000000000000000000000000000081526004016101b09061080d565b60405180910390fd5b6001805f3373ffffffffffffffffffffffffffffffffffffffff1673ffffffffffffffffffffffffffffffffffffffff1681526020019081526020015f205f6101000a81548160ff02191690831515021790555060015f82815481106102225761022161082b565b5b905f5260205f2090600202016001015f82825461023f9190610885565b9250508190555050565b60605f805480602002602001604051908101604052809291908181526020015f905b82821015610334578382905f5260205f2090600202016040518060400160405290815f8201805461029b906108e5565b80601f01602080910402602001604051908101604052809291908181526020018280546102c7906108e5565b80156103125780601f106102e957610100808354040283529160200191610312565b820191905f5260205f20905b8154815290600101906020018083116102f557829003601f168201915b505050505081526020016001820154815250508152602001906001019061026b565b50505050905090565b5f818154811061034b575f80fd5b905f5260205f2090600202015f91509050805f01805461036a906108e5565b80601f0160208091040260200160405190810160405280929190818152602001828054610396906108e5565b80156103e15780601f106103b8576101008083540402835291602001916103e1565b820191905f5260205f20905b8154815290600101906020018083116103c457829003601f168201915b5050505050908060010154905082565b6001602052805f5260405f205f915054906101000a900460ff1681565b5f80fd5b5f819050919050565b61042481610412565b811461042e575f80fd5b50565b5f8135905061043f8161041b565b92915050565b5f6020828403121561045a5761045961040e565b5b5f61046784828501610431565b91505092915050565b5f81519050919050565b5f82825260208201905092915050565b5f819050602082019050919050565b5f81519050919050565b5f82825260208201905092915050565b5f5b838110156104d05780820151818401526020810190506104b5565b5f8484015250505050565b5f601f19601f8301169050919050565b5f6104f582610499565b6104ff81856104a3565b935061050f8185602086016104b3565b610518816104db565b840191505092915050565b61052c81610412565b82525050565b5f604083015f8301518482035f86015261054c82826104eb565b91505060208301516105616020860182610523565b508091505092915050565b5f6105778383610532565b905092915050565b5f602082019050919050565b5f61059582610470565b61059f818561047a565b9350836020820285016105b18561048a565b805f5b858110156105ec57848403895281516105cd858261056c565b94506105d88361057f565b925060208a019950506001810190506105b4565b50829750879550505050505092915050565b5f6020820190508181035f830152610616818461058b565b905092915050565b5f82825260208201905092915050565b5f61063882610499565b610642818561061e565b93506106528185602086016104b3565b61065b816104db565b840191505092915050565b61066f81610412565b82525050565b5f6040820190508181035f83015261068d818561062e565b905061069c6020830184610666565b9392505050565b5f73ffffffffffffffffffffffffffffffffffffffff82169050919050565b5f6106cc826106a3565b9050919050565b6106dc816106c2565b81146106e6575f80fd5b50565b5f813590506106f7816106d3565b92915050565b5f602082840312156107125761071161040e565b5b5f61071f848285016106e9565b91505092915050565b5f8115159050919050565b61073c81610728565b82525050565b5f6020820190506107555f830184610733565b92915050565b7f596f75206861766520616c726561647920766f746564210000000000000000005f82015250565b5f61078f60178361061e565b915061079a8261075b565b602082019050919050565b5f6020820190508181035f8301526107bc81610783565b9050919050565b7f496e76616c69642063616e6469646174652100000000000000000000000000005f82015250565b5f6107f760128361061e565b9150610802826107c3565b602082019050919050565b5f6020820190508181035f830152610824816107eb565b9050919050565b7f4e487b71000000000000000000000000000000000000000000000000000000005f52603260045260245ffd5b7f4e487b71000000000000000000000000000000000000000000000000000000005f52601160045260245ffd5b5f61088f82610412565b915061089a83610412565b92508282019050808211156108b2576108b1610858565b5b92915050565b7f4e487b71000000000000000000000000000000000000000000000000000000005f52602260045260245ffd5b5f60028204905060018216806108fc57607f821691505b60208210810361090f5761090e6108b8565b5b5091905056fea2646970667358221220d4c30cb272a6b3ca472baf00c1738ff6ab6123de1b37a35e942c0ec12d9470eb64736f6c63430008150033",
  "immutableReferences": {},
  "source": "pragma solidity ^0.8.0;\r\n\r\ncontract Voting {\r\n    // Structure to store candidate info\r\n    struct Candidate {\r\n        string name;\r\n        uint voteCount;\r\n    }\r\n\r\n    // Array of candidates\r\n    Candidate[] public candidates;\r\n\r\n    // Mapping to track who has voted\r\n    mapping(address => bool) public voters;\r\n\r\n    // Constructor to initialize candidates\r\n    constructor(string[] memory candidateNames) {\r\n        for (uint i = 0; i < candidateNames.length; i++) {\r\n            candidates.push(Candidate({\r\n                name: candidateNames[i],\r\n                voteCount: 0\r\n            }));\r\n        }\r\n    }\r\n\r\n    // Function to vote\r\n    function vote(uint candidateIndex) public {\r\n        require(!voters[msg.sender], \"You have already voted!\");\r\n        require(candidateIndex < candidates.length, \"Invalid candidate!\");\r\n\r\n        voters[msg.sender] = true;\r\n        candidates[candidateIndex].voteCount += 1;\r\n    }\r\n\r\n    // Function to get all candidates\r\n    function getCandidates() public view returns (Candidate[] memory) {\r\n        return candidates;\r\n    }\r\n}",
  "sourcePath": "C:\\Voting app\\contracts\\Voting.sol",
  "compiler": {
    "name": "solc",
    "version": "0.8.21+commit.d9974bed.Emscripten.clang"
  },
  "schemaVersion": "3.4.16",
  "updatedAt": "2025-02-25T19:03:34.198Z",
  "devdoc": {
    "kind": "dev",
    "methods": {},
    "version": 1
  },
  "userdoc": {
    "kind": "user",
    "methods": {},
    "version": 1
  }
}